:10000000D3EF01F00000000025EF02F00000000037
:0A0010000000000000000000F3D71C
:10001C000B6A0A6A096A086A0E6A033408360450C5
:10002C00085E0550D8A0053C095E0650D8A0063CD9
:10003C000A5E0750D8A0073C0B5EE86AD8A0010EF8
:10004C000E5E0336070E0C6E0334083609360A367C
:10005C000B360E36045003A012D0085E0550D8A003
:10006C00053C095E0650D8A0063C0A5E0750D8A095
:10007C00073C0B5EE86AD8A0010E0E5E11D0082674
:10008C000550D8B0053C09260650D8B0063C0A26C7
:10009C000750D8B0073C0B26E86AD8B0010E0E26E4
:1000AC0003360C2ED1D70234083609360A360B36F5
:1000BC000E36045003A012D0085E0550D8A0053CA3
:1000CC00095E0650D8A0063C0A5E0750D8A0073C33
:1000DC000B5EE86AD8A0010E0E5E11D00826055002
:1000EC00D8B0053C09260650D8B0063C0A26075065
:1000FC00D8B0073C0B26E86AD8B0010E0E260236A3
:10010C00070E0C6E0234083609360A360B360E36DC
:10011C00045002A012D0085E0550D8A0053C095E20
:10012C000650D8A0063C0A5E0750D8A0073C0B5ED0
:10013C00E86AD8A0010E0E5E11D008260550D8B082
:10014C00053C09260650D8B0063C0A260750D8B004
:10015C00073C0B26E86AD8B0010E0E2602360C2E90
:10016C00D1D70134083609360A360B360E36045010
:10017C0002A012D0085E0550D8A0053C095E0650BE
:10018C00D8A0063C0A5E0750D8A0073C0B5EE86A74
:10019C00D8A0010E0E5E11D008260550D8B0053C33
:1001AC0009260650D8B0063C0A260750D8B0073CA2
:1001BC000B26E86AD8B0010E0E260136070E0C6E1F
:1001CC000134083609360A360B360E36045001A0B7
:1001DC0012D0085E0550D8A0053C095E0650D8A088
:1001EC00063C0A5E0750D8A0073C0B5EE86AD8A014
:1001FC00010E0E5E11D008260550D8B0053C09261C
:10020C000650D8B0063C0A260750D8B0073C0B263F
:10021C00E86AD8B0010E0E2601360C2ED1D7003468
:10022C00083609360A360B360E36045001A012D0A9
:10023C00085E0550D8A0053C095E0650D8A0063CC7
:10024C000A5E0750D8A0073C0B5EE86AD8A0010EE6
:10025C000E5E11D008260550D8B0053C0926065074
:10026C00D8B0063C0A260750D8B0073C0B26E86AE3
:10027C00D8B0010E0E260036070E0C6E0034083670
:10028C0009360A360B360E36045000A012D0085E22
:10029C000550D8A0053C095E0650D8A0063C0A5E65
:1002AC000750D8A0073C0B5EE86AD8A0010E0E5E82
:1002BC0011D008260550D8B0053C09260650D8B0F8
:1002CC00063C0A260750D8B0073C0B26E86AD8B083
:1002DC00010E0E2600360C2ED1D700B00ED00450D5
:1002EC0008260550D8B0053C09260650D8B0063C67
:0C02FC000A260750D8B0073C0B26120061
:100308003F0E2E6E060E2F6E5B0E306E4F0E316E48
:10031800660E326E6D0E336E7D0E346E070E356EC0
:100328007F0E366E6F0E376E2E0EE96E000EEA6E79
:0E0338002D50E926D8B0EA2AEECF00F01200D0
:100346000B6A0A6A096A00500402F4CF09F0F3CF77
:1003560008F001500502F4CF0BF0F3CF0AF000507D
:100366000502F3500926F4500A22E86A0B220150CE
:100376000402F3500926F4500A22E86A0B2208C048
:1003860000F009C001F00AC002F00BC003F0120031
:100396000900F5CFE6FF0006FBE10106F9E11200D0
:1003A6001C6A010E1D6E1E6A1F6A206A216A6E0E85
:1003B600D36E946A936A819081928194C40ED56EAD
:1003C600640ED66EA00EF26E060E0B6E130E0C6E3B
:1003D600AD0E0D6E0D2EFED70C2EFCD70B2EFAD7BA
:1003E60000000000010E1E26000E1F2220222122E0
:1003F6001EC001F01FC002F020C003F021C004F0AF
:10040600100E015E270E025A000E035A045A000E01
:10041600006E041808E10050031805E100500218A8
:1004260002E10150000A04E11E6A1F6A206A216A7D
:10043600A30E0C6E550E0D6E0D2EFED70C2EFCD790
:04044600D1D7FFD734
:10044A0000C01BF001C01AF002C019F003C018F076
:10045A0004C017F00BC016F00CC015F0640ED66E6F
:10046A00200EF26E1D2A1D50040802E2010E1D6EB6
:10047A00819681B602D0819401D0818481B402D060
:10048A00819201D0818281B202D0819001D0818093
:10049A00E80E046E030E056E000E066E076E1EC091
:1004AA0000F01FC001F020C002F021C003F0B1DD4E
:1004BA0000C01CF0000E016EE80E046E030E056EFD
:1004CA003DDF1EC004F01FC005F020C006F021C0A9
:1004DA0007F00050045E0150055A000E01BEFF0EDF
:1004EA00065A075A04C000F005C001F006C002F01F
:1004FA0007C003F0640E046E000E056E066E076EEA
:10050A0088DD00C022F01CC000F0000E016EE80E6B
:10051A00046E030E056E12DF1EC029F01FC02AF0FA
:10052A0020C02BF021C02CF00050295E01502A5A1D
:10053A00000E01BEFF0E2B5A2C5A640E2202F3CF74
:10054A0000F0F4CF01F029C025F02AC026F02BC014
:10055A0027F02CC028F00050255E0150265A000EC4
:10056A0001BEFF0E275A285A0A0E046E000E056EA7
:10057A00066E076E25C000F026C001F027C002F003
:10058A0028C003F046DD00C024F025C023F00A0E7F
:10059A000002F3CF00F00050235E40D023C02DF0BC
:1005AA00AEDE00C082FF818045D024C02DF0A7DED8
:1005BA0000C082FF000E215C08E1000E205C05E10C
:1005CA00000E1F5C02E10A0E1E5C01E3818232D03A
:1005DA0022C02DF094DE00C082FF000E215C08E1EB
:1005EA00000E205C05E1000E1F5C02E1640E1E5C39
:1005FA0001E381841FD01CC02DF081DE00C082FF80
:10060A00000E215C08E1000E205C05E1030E1F5C70
:10061A0002E1E80E1E5C01E381860CD01D50010A3E
:10062A00BDE01D50020AC1E01D50030AD1E01D5071
:10063A00040AE1E01BC000F01AC001F019C002F080
:10064A0018C003F017C004F016C00BF015C00CF068
:02065A0011008D
:020000040030CA
:0D000100021F1EFF8381FF0FC00FE00F40A4
:00000001FF
